:020000020000FC
:0200000012C02C
:060016008CC01895CDC05E
:100026000FE50DBF04E00EBF13D019D0F89409E117
:1000360009B900E000BD0EE800BD08EF0AB920ECE2
:1000460031E010D022EE31E00DD041E07894FFCFC0
:10005600A89501B5086101BD00E001BD0895A0E6BF
:10006600B0E00895E22FF32F1F935D9BFECF15910D
:10007600103011F01CB9F9CF1F9108950F935D9BB5
:10008600FECF0D91003011F00CB9F9CF0F91089504
:100096000F931F932F933F936624772488249924E4
:1000A600AA24173220F0639400511742FACF133076
:1000B60020F07394085E1340FACF24E630E002176E
:1000C600130720F0839404561040F7CF0A3018F037
:1000D60093940A50FBCFA02E0F93062D005D602E41
:1000E6000F916D920F93072D005D702E0F917D92EB
:1000F6000F93082D005D802E0F918D920F93092D81
:10010600005D902E0F919D920F930A2D005DA02EFB
:100116000F91AD9200E00D933F912F911F910F919A
:100126000895A89508E001BDFFCF0FE30F931CB11A
:100136004330B9F31D3051F0103308F404C01A33BC
:1001460010F41D931CB90F910FBF18950F931F93B1
:1001560050E05C9384DF002711276AE05D91503000
:1001660069F05F93512F069F002D112D569F100D9C
:100176005F915053050F50E0151FF0CF413041F409
:10018600202E312E24EF31E06DDF69DF43950DC05F
:10019600020D131D26E032E065DF61DF79DF5FDFE8
:1001A6006DDF28E132E05EDF43951F910F91CBCFE3
:1001B6000FE30F930F910FBF18950D77656C636F63
:1001C6006D6520746F2041565220416464697469DC
:1001D6006F6E2050726F6772616D20000D656E74D0
:1001E6006572206E756D62657220313A20000D656C
:1001F6006E746572206E756D62657220323A2000EB
:100206000D2054686520526573756C742069733AC5
:1002160020000D707265737320616E79206B6579AD
:1002260020746F20636F6E746975652E2E2E200004
:00000001FF
